:100000000C94EC000C9414010C9414010C94140145
:100010000C9414010C9414010C9414010C9414010C
:100020000C9414010C9414010C9414010C941401FC
:100030000C9414010C9414010C9414010C941401EC
:100040000C94720B0C9414010C940A020C94E401AD
:100050000C9414010C9414010C9414010C941401CC
:100060000C9414010C9414010123456789ABCDEF66
:10007000FEDCBA9876543210F0E1D2C3982F8A424F
:1000800091443771CFFBC0B5A5DBB5E95BC25639EA
:10009000F111F159A4823F92D55E1CAB98AA07D802
:1000A000015B8312BE853124C37D0C55745DBE7225
:1000B000FEB1DE80A706DC9B74F19BC1C1699BE4A5
:1000C0008647BEEFC69DC10FCCA10C246F2CE92D35
:1000D000AA84744ADCA9B05CDA88F97652513E9859
:1000E0006DC631A8C82703B0C77F59BFF30BE0C660
:1000F0004791A7D55163CA0667292914850AB727EE
:1001000038211B2EFC6D2C4D130D385354730A658A
:10011000BB0A6A762EC9C281852C7292A1E8BFA261
:100120004B661AA8708B4BC2A3516CC719E892D1C9
:10013000240699D685350EF470A06A1016C1A4194C
:10014000086C371E4C774827B5BCB034B30C1C394B
:100150004AAAD84E4FCA9C5BF36F2E68EE828F740A
:100160006F63A5781478C8840802C78CFAFFBE9024
:10017000EB6C50A4F7A3F9BEF27871C60000000042
:1001800023002600290000000000240027002A0088
:1001900000000000250028002B00040404040404CF
:1001A0000404020202020202030303030303010226
:1001B00004081020408001020408102001020408F5
:1001C00010200000000800020100000304070000E6
:1001D000000000000000931411241FBECFEFD8E0F0
:1001E000DEBFCDBF12E0A0E0B1E0E4E7F7E302C07C
:1001F00005900D92A631B107D9F724E0A6E1B2E04F
:1002000001C01D92AF34B207E1F710E0CCEED0E0B0
:1002100004C02197FE010E946015CB3ED107C9F7AB
:100220000E9457100C94B81B0C940000FC01918D97
:10023000828D981761F0828DDF01A80FB11D5D9648
:100240008C91928D9F5F9F73928F90E008958FEFB6
:100250009FEF0895FC01918D828D981731F0828D6A
:10026000E80FF11D858D90E008958FEF9FEF0895C1
:10027000FC01918D228D892F90E0805C9F4F821B25
:1002800091098F73992708958CE292E00E943801BA
:1002900021E0892B09F420E0822F0895FC01848D50
:1002A000DF01A80FB11DA35ABF4F2C91848D90E0A0
:1002B00001968F739927848FA689B7892C93A0897B
:1002C000B1898C9180648C93938D848D981306C032
:1002D0000288F389E02D80818F7D80830895EF92DD
:1002E000FF920F931F93CF93DF93EC0181E0888FF0
:1002F0009B8D8C8D981305C0E889F989808185FDD7
:1003000024C0F62E0B8D10E00F5F1F4F0F731127C7
:10031000E02E8C8DE8120CC00FB607FCFACFE889EE
:10032000F989808185FFF5CFCE010E944E01F1CF82
:100330008B8DFE01E80FF11DE35AFF4FF0820B8F0A
:10034000EA89FB898081806207C0EE89FF8960832A
:10035000E889F98980818064808381E090E0DF9181
:10036000CF911F910F91FF90EF900895CF93DF935E
:10037000EC01888D8823C9F0EA89FB89808185FD9D
:1003800005C0A889B9898C9186FD0FC00FB607FCFE
:10039000F5CF808185FFF2CFA889B9898C9185FF3F
:1003A000EDCFCE010E944E01E7CFDF91CF910895AE
:1003B00080E090E0892B29F00E94440181110C9487
:1003C000000008950E94EB171F920F920FB60F9234
:1003D00011242F933F934F935F936F937F938F934A
:1003E0009F93AF93BF93EF93FF938CE292E00E94B1
:1003F0004E01FF91EF91BF91AF919F918F917F91AE
:100400006F915F914F913F912F910F900FBE0F9081
:100410001F9018951F920F920FB60F9211242F93D1
:100420008F939F93EF93FF93E0913C02F0913D02F5
:100430008081E0914202F091430282FD12C09081DE
:10044000809145028F5F8F7320914602821751F091
:10045000E0914502F0E0E45DFD4F958F8093450209
:1004600001C08081FF91EF919F918F912F910F900B
:100470000FBE0F901F901895833081F028F48130C3
:1004800099F08230A1F008958730A9F08830B9F052
:100490008430D1F4809180008F7D03C080918000F2
:1004A0008F7780938000089584B58F7702C084B5DC
:1004B0008F7D84BD08958091B0008F7703C08091B7
:1004C000B0008F7D8093B00008953FB7F89480917D
:1004D000280290912902A0912A02B0912B0226B500
:1004E000A89B05C02F3F19F00196A11DB11D3FBF6C
:1004F000BA2FA92F982F8827820F911DA11DB11DFA
:10050000BC01CD0142E0660F771F881F991F4A95F5
:10051000D1F708953F924F925F926F927F928F92A0
:100520009F92AF92BF92CF92DF92EF92FF920F9382
:100530001F93CF93DF937C016B014A01322EDB01C5
:100540001496AD90BC901597C0E0D0E0422E512C8F
:1005500066246394712CF701828190E09C01241938
:100560003509C217D307C4F5CA15DB05ACF5D701A9
:10057000ED91FC910088F189E02D8C1B9D0B01977A
:10058000930102C0220F331F8A95E2F7C901882127
:10059000992121E0892B09F420E0D60114968D9150
:1005A0009C911597C817D90748F48D919C91009795
:1005B00029F0DC01AC0FBD1F8C9101C080E0D80197
:1005C000A80FB11D87FDBA9590976C2F630D4C91C4
:1005D000C70109952196BFCFDF91CF911F910F9150
:1005E000FF90EF90DF90CF90BF90AF909F908F9053
:1005F0007F906F905F904F903F9008955F926F92C1
:100600007F928F929F92AF92BF92CF92DF92EF92A2
:10061000FF920F931F93CF93DF936C014A01522EE9
:100620007B01C0E0D0E0A22EB12C66246394712C33
:10063000D60112968C9190E09C012A193B09C217B1
:10064000D30744F5D7013D917D01332319F1D6013C
:10065000ED91FC918C1B9D0B0197A30102C0440FEF
:10066000551F8A95E2F7CA018821992121E0892B3B
:1006700009F420E0D801A30FB11D37FDBA9590977A
:100680006C2F650D0088F189E02D4C91C60109950C
:100690002196CECFDF91CF911F910F91FF90EF90D8
:1006A000DF90CF90BF90AF909F908F907F906F9092
:1006B0005F9008950F931F93CF93DF938C01C0E059
:1006C000D0E0F801228130E0C217D3076CF4D801E2
:1006D000ED91FC916C2F660F0488F589E02D40E0C8
:1006E000C80109952196EDCFDF91CF911F910F9110
:1006F0000895CF92DF92EF92FF921F93CF93DF93F3
:100700006C017B01E40EF51EC62FD72F162F109516
:10071000CE15DF0569F04991D601ED91FC916C2F62
:10072000610F0088F189E02D20E0C6010995F0CF26
:10073000DF91CF911F91FF90EF90DF90CF900895C0
:10074000242FDC01ED91FC910088F189E02D40E03F
:1007500009940F931F93CF93DF93EC01E881F98104
:100760000084F185E02D48E050E065E771E00995EF
:1007700008E010E08A8190E00817190764F4E88126
:10078000F9810680F781E02D40E0602FCE010995C8
:100790000F5F1F4FEFCFDF91CF911F910F91089502
:1007A0000F931F93CF93DF93EC01842FE881F9819E
:1007B000962F9F70D801A90FB11D0088F189E02DF7
:1007C0004C91682FCE01DF91CF911F910F91099429
:1007D000DC01ED91FC910084F185E02D40E050E0DA
:1007E00060E070E00994CF92DF92EF92FF920F9356
:1007F0001F93CF93DF937C018B01C0E0D0E06B01AE
:10080000C40ED51EF701828190E0C817D9074CF5B8
:10081000F80140E050E0EC15FD05B9F0219130E021
:100820000C2E02C0359527950A94E2F721703327E4
:10083000BC016E1B7F0B600F711F02C0220F331FA4
:100840006A95E2F7422B532BE6CFD701ED91FC914D
:100850006C2F660F0488F589E02DC7010995219654
:10086000D1CFDF91CF911F910F91FF90EF90DF904B
:10087000CF900895DC01ED91FC910480F581E02D8D
:100880000994DC01ED91FC910480F581E02D09943F
:10089000DC01ED91FC910480F581E02D09942F920B
:1008A0003F924F925F926F927F928F929F92AF9200
:1008B000BF92CF92DF92EF92FF920F931F93CF934D
:1008C000DF93CDB7DEB7C554D1090FB6F894DEBFBC
:1008D0000FBECDBF26969FAF8EAF2697FC01EB597A
:1008E000FF4F80819181A281B3810196A11DB11D2D
:1008F00080839183A283B3832696EEADFFAD2697C6
:10090000EC5BFF4F808193E098272696AEADBFAD9C
:100910002697A90FB11D14966C938F5F8083803446
:1009200009F0B0C326962EAD3FAD26972B5B3F4F07
:10093000D9018D909D90AD90BC9088A299A2AAA259
:10094000BBA226962EAD3FAD2697275B3F4FD90120
:100950008D909D90AD90BC908CA29DA2AEA2BFA2A6
:1009600026962EAD3FAD2697235B3F4FD9018D9044
:100970009D90AD90BC9088A699A6AAA6BBA62696E7
:100980002EAD3FAD26972F5A3F4FD9018D909D90A8
:10099000AD90BC908CA69DA6AEA6BFA626962EAD09
:1009A0003FAD26972B5A3F4FD9018D909D90AD902A
:1009B000BC9088AA99AAAAAABBAA26962EAD3FAD3A
:1009C0002697275A3F4FD9018D909D90AD90BC90AE
:1009D0008CAA9DAAAEAABFAA26962EAD3FAD269799
:1009E000235A3F4FD9018D909D90AD90BC9088AE19
:1009F00099AEAAAEBBAE26962EAD3FAD26972F5927
:100A00003F4FD9018D909D90AD90BC908CAE9DAE26
:100A1000AEAEBFAE0CE710E01F8F0E8F2CA53DA52C
:100A20004EA55FA52E8B3F8B488F598F48A559A5A2
:100A30006AA57BA54A8B5B8B6C8B7D8B6CA17DA1A2
:100A40008EA19FA16E877F87888B998BC8A0D9A024
:100A5000EAA0FBA08CA99DA9AEA9BFA98A8F9B8FF4
:100A6000AC8FBD8F88AC99ACAAACBBAC8A869B8698
:100A7000AC86BD868CAD9DADAEADBFAD08A919A944
:100A80002AA93BA90D831E832F8338871AEF212EB5
:100A900033243A9419862E8D3F8DF9014590559057
:100AA000659074900D811E812F81388545E1000F7E
:100AB000111F221F331F4A95D1F74D815E816F812F
:100AC0007885EBE07695679557954795EA95D1F748
:100AD000402B512B622B732B8D809E80AF80B8846E
:100AE000FAE1880C991CAA1CBB1CFA95D1F70D8160
:100AF0001E812F813885E6E0369527951795079555
:100B0000EA95D1F7082919292A293B29042715270D
:100B1000262737274D815E816F817885F9E17695AB
:100B2000679557954795FA95D1F78D809E80AF8050
:100B3000B884E7E0880C991CAA1CBB1CEA95D1F785
:100B4000842A952AA62AB72A80269126A226B32689
:100B50004A855B856C857D850A8D1B8D2C8D3D8D31
:100B600040275127622773270D811E812F813885E9
:100B700040235123622373230A851B852C853D85E1
:100B80004027512762277327840E951EA61EB71E85
:100B9000480C591C6A1C7B1C29852F702696EEADCB
:100BA000FFAD269714E0219FE00DF11D11248480F4
:100BB0009580A680B780480C591C6A1C7B1C840D4C
:100BC000951DA61DB71D46015701F3E1880C991C20
:100BD000AA1CBB1CFA95D1F7B701A6011DE07695BA
:100BE0006795579547951A95D1F72A013B014828F3
:100BF00059286A287B28970186014EE1000F111FB2
:100C0000221F331F4A95D1F7B701A601E2E076957E
:100C1000679557954795EA95D1F7402B512B622B55
:100C2000732B5301420184269526A626B7269701E9
:100C30008601F6E13695279517950795FA95D1F730
:100C4000B701A601EAE0440F551F661F771FEA951A
:100C5000D1F7402B512B622B732B482559256A2540
:100C60007B254A885B886C887D888E849F84A888D1
:100C7000B988482859286A287B284C205D206E2096
:100C80007F200A891B892C893D89082119212A2165
:100C90003B210429152926293729040F151F261F52
:100CA000371F4E895F89688D798D480F591F6A1FDC
:100CB0007B1F49835A836B837C8348015901880ECB
:100CC000991EAA1EBB1E24968CAE9DAEAEAEBFAEC4
:100CD000249709850F5F0987003409F41BC1198522
:100CE000103108F4D7C0812F8F7026962EAD3FADFE
:100CF000269744E0849F200D311D11243F8B2E8BBD
:100D0000F101EF70FF273196EE0FFF1FEE0FFF1F6F
:100D10002696AEADBFAD2697AE0FBF1FF901048179
:100D20001581268137818D919D910D90BC91A02DCB
:100D300028013901480E591E6A1E7B1EF1013596A5
:100D4000EF70FF273196EE0FFF1FEE0FFF1F269665
:100D50008EAC9FAC2697E80DF91D00811181228190
:100D60003381B901A8018DE0440F551F661F771F1D
:100D70008A95D1F7D901C801E3E1B695A795979572
:100D80008795EA95D1F7482B592B6A2B7B2BD901F4
:100D9000C801FFE0880F991FAA1FBB1FFA95D1F762
:100DA00048015901E1E1B694A79497948794EA9594
:100DB000D1F7882A992AAA2ABB2A84269526A6260C
:100DC000B726FAE03695279517950795FA95D1F746
:100DD000082519252A253B25040D151D261D371D1F
:100DE000F1013897EF70FF273196EE0FFF1FEE0FDE
:100DF000FF1F2696AEACBFAC2697EA0DFB1D4081C7
:100E00005181628173812A013B01BEE0440C551C73
:100E1000661C771CBA95D1F7DB01CA01E2E1B695F1
:100E2000A79597958795EA95D1F7482A592A6A2A6E
:100E30007B2ADB01CA01F7E0B695A79597958795C0
:100E4000FA95D1F74A015B01E9E1880C991CAA1CCB
:100E5000BB1CEA95D1F7882A992AAA2ABB2A84249E
:100E60009524A624B724F3E0769567955795479582
:100E7000FA95D1F784269526A626B726800E911ED0
:100E8000A21EB31EAE89BF8914968D929D92AD921B
:100E9000BC9217970E8D1F8D0C5F1F4F1F8F0E8FEB
:100EA0001FEF211A310A2A893B894C895D892E8BD3
:100EB0003F8B488F598F4E855F85688979894A8B2A
:100EC0005B8B6C8B7D8BCE86DF86E88AF98A2496D5
:100ED000CCACDDACEEACFFAC24978A859B85AC85B1
:100EE000BD858A8C9B8CAC8CBD8C8A869B86AC869F
:100EF000BD860D811E812F8138850A8F1B8F2C8F17
:100F00003D8F29813A814B815C812D833E834F83C4
:100F10005887C1CD26966EAD7FAD26976B5B7F4F10
:100F2000D501C40128A139A14AA15BA1820F931F59
:100F3000A41FB51FFB0180839183A283B3832696F0
:100F4000EEADFFAD2697E75BFF4F8CA09DA0AEA056
:100F5000BFA0C80CD91CEA1CFB1CC082D182E28253
:100F6000F38226966EAD7FAD2697635B7F4F8E85AD
:100F70009F85A889B98908A519A52AA53BA5800F31
:100F8000911FA21FB31FFB0180839183A283B383B0
:100F900026966EAD7FAD26976F5A7F4F8A899B89C3
:100FA000AC89BD898CA49DA4AEA4BFA4880D991D55
:100FB000AA1DBB1DFB0180839183A283B383269668
:100FC0006EAD7FAD26976B5A7F4F89819A81AB8139
:100FD000BC8188A899A8AAA8BBA8880D991DAA1D9C
:100FE000BB1DFB0180839183A283B38326966EADE4
:100FF0007FAD2697675A7F4F8D819E81AF81B885DF
:101000008CA89DA8AEA8BFA8880D991DAA1DBB1DC0
:10101000FB0180839183A283B38326966EAD7FAD5F
:101020002697635A7F4F8A8D9B8DAC8DBD8D88AC82
:1010300099ACAAACBBAC880D991DAA1DBB1DFB01C8
:1010400080839183A283B38326966EAD7FAD26976E
:101050006F597F4F8A859B85AC85BD858CAC9DACD7
:10106000AEACBFAC880D991DAA1DBB1DFB018083D2
:101070009183A283B3832696EEADFFAD2697EC5BFA
:10108000FF4F1082CB5BDF4F0FB6F894DEBF0FBE71
:10109000CDBFDF91CF911F910F91FF90EF90DF9027
:1010A000CF90BF90AF909F908F907F906F905F9008
:1010B0004F903F902F9008952F923F924F925F92C2
:1010C0006F927F928F929F92AF92BF92CF92DF9258
:1010D000EF92FF920F931F93CF93DF9300D0CDB782
:1010E000DEB76C012B014A016DB77EB77A83698345
:1010F000DC011296EC90F12C3701B1E06B1A71080B
:10110000EDB7FEB7EE19FF090FB6F894FEBF0FBE9C
:10111000EDBF6DB77EB76F5F7F4F5B01D201149655
:101120002D903C901597A70160E070E0C5010E94EA
:10113000F917F50120E030E02E153F0584F5A401F4
:10114000062C02C0569547950A94E2F722153305FE
:10115000DCF42215330550F4D2018D919C91009757
:1011600029F0DC01A20FB31F8C9101C080E0B8010F
:10117000680F711D87FD7A95DB019097479544278D
:1011800047958C91482B03C047954427479540834A
:101190002F5F3F4F71E0671A71083196CDCFD601AE
:1011A000ED91FC910084F185E02DA701B501C60108
:1011B0000995E981FA810FB6F894FEBF0FBEEDBF25
:1011C0000F900F90DF91CF911F910F91FF90EF90B3
:1011D000DF90CF90BF90AF909F908F907F906F9057
:1011E0005F904F903F902F9008952F923F924F9293
:1011F0005F926F927F928F929F92AF92BF92CF92A7
:10120000DF92EF92FF920F931F93CF93DF9300D063
:10121000CDB7DEB76C012B014A012DB63EB6DC011D
:101220001296EC90F12C3701B1E06B1A7108EDB712
:10123000FEB7EE19FF090FB6F894FEBF0FBEEDBF63
:101240006DB77EB76F5F7F4F5B01A70160E070E015
:10125000C5010E94F917D50149825A8240E07FEF0B
:101260006716770669F19401062C02C0369527951A
:101270000A94E2F7411114C0E981FA818081882340
:1012800079F0B801680F711D87FD7A95CB018097C1
:10129000279522272795FC018081282B2C9305C0B8
:1012A0002795222727952C9341E0F1E06F1A7108CA
:1012B000119669817A816F5F7F4F7A836983CFCF7F
:1012C000D601ED91FC910084F185E02DA701B501D7
:1012D000C60109950FB6F8943EBE0FBE2DBE0F9005
:1012E0000F90DF91CF911F910F91FF90EF90DF90C2
:1012F000CF90BF90AF909F908F907F906F905F90B6
:101300004F903F902F9008951F93CF93DF93282FF6
:1013100030E0F901EE53FE4F8491F901E255FE4FA2
:10132000D491F901E656FE4FC491CC23C9F0162F93
:1013300081110E943C02EC2FF0E0EE0FFF1FE057FE
:10134000FE4FA591B4918FB7F894111105C09C91EF
:10135000ED2FE095E92302C0EC91ED2BEC938FBFCC
:10136000DF91CF911F910895FF920F931F93CF9319
:10137000DF938C01F62EC8E0D0E060E0F8018481B4
:101380000E9484096F2D6170F80183810E94840995
:10139000F69461E0F80184810E948409219769F73D
:1013A000DF91CF911F910F91FF900895EF92FF92DF
:1013B0001F93CF93DF931F92CDB7DEB77C01162F1B
:1013C000DC01ED91FC910288F389E02D64E449830E
:1013D000099560E0F70185810E948409D701ED91AC
:1013E000FC91612F606C0688F789E02DC701099593
:1013F000D701ED91FC910688F789E02D4981642F92
:10140000C701099561E0F70185810F90DF91CF91C8
:101410001F91FF90EF900C9484091F93CF93DF935B
:10142000EC01162F60E08D810E948409E881F9812A
:101430000688F789E02D612FCE01099561E08D8145
:10144000DF91CF911F910C948409CF93DF93EC012E
:10145000E881F9810288F389E02D611102C060E81A
:1014600001C068E8483008F047E0642BCE010995D8
:1014700060E08D810E94840960E08C810E94840973
:1014800061E08C810E94840961E08D81DF91CF91C0
:101490000C948409EF92FF920F931F93CF93DF93E5
:1014A000EC0160E08D810E948409E881F981068861
:1014B000F789E02D62E4CE010995E12CF12C00E0E2
:1014C00010E0E881F981008CF18DE02DCE010995C5
:1014D000482F8270880F880F880F242F2072982F32
:1014E000922B242F207430E083E0359527958A9540
:1014F000E1F74470242B3595279535952795A7015D
:10150000440F551F60E1969FC00111242F70822B5C
:1015100002C0880F991F4A95E2F7082B192B8FEF0D
:10152000E81AF80A64E0E616F10459F661E08D81E4
:101530000E948409C801DF91CF911F910F91FF9004
:10154000EF900895CF93DF9390E0FC01E255FE4FBA
:101550002491FC01E656FE4F8491882361F190E0CE
:10156000880F991FFC01EA57FE4FC591D491FC01E9
:10157000E057FE4FA591B491611109C09FB7F8944F
:101580008881209582238883EC912E230BC06230C2
:1015900061F49FB7F8943881822F809583238883E4
:1015A000EC912E2B2C939FBF06C08FB7F894E88147
:1015B0002E2B28838FBFDF91CF910895BF92CF92BA
:1015C000DF92EF92FF920F931F93CF93DF93EC0183
:1015D00060E08B810E94A20A61E08B810E948409F5
:1015E00008E010E0D12CED2CF12CF594E794DE2CE2
:1015F00060E08C810E9484092B8130E0F901EE5378
:10160000FE4F8491F901E255FE4FB490F901E65680
:10161000FE4FC490CC2071F081110E943C02EC2D51
:10162000F0E0EE0FFF1FE458FE4FA591B491EC914E
:10163000EB21D1F461E08C810E94840901501109F1
:1016400091F661E08B810E94A20A60E08B810E948A
:1016500084098D2DDF91CF911F910F91FF90EF9015
:10166000DF90CF90BF9008958E2D8068D82EE2CF66
:101670008F929F92AF92BF92CF92DF92EF92FF92A2
:101680006B017C010E9465024B015C01C114D10415
:10169000E104F104F1F00E946502DC01CB0188193C
:1016A0009909AA09BB09883E9340A105B10570F3C9
:1016B00021E0C21AD108E108F10888EE880E83E023
:1016C000981EA11CB11CC114D104E104F10419F746
:1016D000DDCFFF90EF90DF90CF90BF90AF909F90C5
:1016E0008F9008951F920F920FB60F9211242F938F
:1016F0003F938F939F93AF93BF93809116029091E6
:101700001702A0911802B09119023091270223E02C
:10171000230F2D3720F40196A11DB11D05C026E829
:10172000230F0296A11DB11D20932702809316025C
:1017300090931702A0931802B09319028091280287
:1017400090912902A0912A02B0912B020196A11D2D
:10175000B11D8093280290932902A0932A02B0938E
:101760002B02BF91AF919F918F913F912F910F903D
:101770000FBE0F901F9018952F923F924F925F923D
:101780006F927F928F929F92AF92BF92CF92DF9291
:10179000EF92FF920F931F93CF93DF93CDB7DEB7F6
:1017A000A2970FB6F894DEBF0FBECDBFFC01EC5B75
:1017B000FF4F208133E03227DC01A30FB11D1496C7
:1017C0006C932F5F2083203409F0BEC13196808056
:1017D0009180A280B38089869A86AB86BC86349637
:1017E000A080B180C280D380AD86BE86CF86D88AE5
:1017F0003496C080D180E280F380C98ADA8AEB8A8D
:10180000FC8A3496E080F18002811381ED8AFE8AA1
:101810000F8B188F34960081118122813381098FBB
:101820001A8F2B8F3C8F0D8F1E8F2F8F38A32985FA
:101830003A854B855C852D833E834F835887CD84C5
:10184000DE84EF84F8884D895E896F89788D4983BD
:101850005A836B837C8309891A892B893C89212CC3
:10186000312C522C50E125163104C8F449815A819B
:101870006B817C8140275127622773274C215D2192
:101880006E217F2189809A80AB80BC8048255925B4
:101890006A257B25475656486D47754A9CC0422DA0
:1018A0004F703C0154E0459F600C711C1124D10124
:1018B0001D96AF70BB271196AA0FBB1FAA0FBB1FA7
:1018C000A80FB91FF1013896EF70FF273196EE0F80
:1018D000FF1FEE0FFF1FE80FF91F8D909D90AD9039
:1018E000BC904081518162817381482559256A25C8
:1018F0007B25D30114968D909D90AD90BC90179749
:10190000482559256A257B25F1013296EF70FF277E
:101910003196EE0FFF1FEE0FFF1FE80FF91F8080BB
:101920009180A280B380482559256A257B25440FE4
:10193000551F661F771F411DF3014483558366833E
:101940007783F3E1F21508F091CF57E2852E8214E8
:1019500088F049815A816B817C8140275127622719
:1019600073274C255D256E257F254F5554416642D2
:10197000714931C04BE3942E9214E8F0B701A601EF
:10198000402B512B622B732B89809A80AB80BC80BB
:10199000482159216A217B21460157018022912249
:1019A000A222B322482959296A297B294452534447
:1019B000644E704710C049815A816B817C814027F9
:1019C0005127622773274C255D256E257F254A52B6
:1019D0005E436D497543F52DFF705C01A4E0FA9FED
:1019E000A00CB11C1124BAA2A9A24D805E806F8008
:1019F0007884EBE17694679457944794EA95D1F70D
:101A00008D809E80AF80B884F5E0880C991CAA1C5C
:101A1000BB1CFA95D1F784289528A628B728E9A1F8
:101A2000FAA14480558066807780840C951CA61CA2
:101A3000B71C480D591D6A1D7B1D8D8C9E8CAF8C6B
:101A4000B8A0480D591D6A1D7B1D46015701A2E033
:101A5000B694A79497948794AA95D1F72601370155
:101A6000BEE1440C551C661C771CBA95D1F748287A
:101A700059286A287B28AFEF2A1A3A0ACD80DE80DF
:101A8000EF80F88489809A80AB80BC808D8E9E8E9A
:101A9000AF8EB8A2A0E52A16310459F04D835E83BB
:101AA0006F83788709831A832B833C839301820198
:101AB000D8CEFC01EB5BFF4F89849A84AB84BC8455
:101AC000480D591D6A1D7B1D4083518362837383BA
:101AD0003496B701A601AD84BE84CF84D8884A0D60
:101AE0005B1D6C1D7D1D408351836283738334961F
:101AF000C988DA88EB88FC884C0C5D1C6E1C7F1C46
:101B0000408251826282738234964D895E896F89E8
:101B1000788D040F151F261F371F00831183228322
:101B20003383349649815A816B817C81898C9A8C6C
:101B3000AB8CBC8C480D591D6A1D7B1D40835183A5
:101B40006283738371971082A2960FB6F894DEBFFA
:101B50000FBECDBFDF91CF911F910F91FF90EF90FE
:101B6000DF90CF90BF90AF909F908F907F906F90BD
:101B70005F904F903F902F900895262FFC01E75AD9
:101B8000FF4F40815181628173814F5F5F4F6F4F83
:101B90007F4F4083518362837383622F0E94BC0B0B
:101BA00008950895CF92DF92EF92FF920F931F93C3
:101BB000CF93DF936C017A018B01C0E0D0E0CE15AA
:101BC000DF0589F0D8016D918D01D601ED91FC9171
:101BD0000190F081E02DC6010995892B11F47E0159
:101BE00002C02196ECCFC701DF91CF911F910F91D9
:101BF000FF90EF90DF90CF90089542E050E062E1D7
:101C000072E08CE292E00C94D20DCF93DF93FC0152
:101C100044815581608171818CE292E00E94D20DF5
:101C2000EC010E94FD0D8C0F9D1FDF91CF91089557
:101C300060E889EC92E00E94BC0B80910D0360E0AB
:101C40008833B9F789EC92E00E94BC0B60E089EC24
:101C500092E00E94BC0B60E089EC92E00E94BC0B19
:101C60008091220390912303A0912403B091250336
:101C7000BC01CD012DE196958795779567952A95BD
:101C8000D1F789EC92E00E94BC0B809122039091E5
:101C90002303A0912403B0912503BC01CD0135E1BC
:101CA00096958795779567953A95D1F789EC92E067
:101CB0000E94BC0B8091220390912303A0912403E6
:101CC000B0912503BC01CD014DE0969587957795A0
:101CD00067954A95D1F789EC92E00E94BC0B809100
:101CE000220390912303A0912403B0912503BC010A
:101CF000CD0155E096958795779567955A95D1F7DB
:101D000089EC92E00E94BC0B60912203660F660F83
:101D1000660F89EC92E00E94BC0BEEE0F3E060817C
:101D20007181828193810E9459156193719381938E
:101D3000919383E0E232F80791F78EE093E0089503
:101D40000F931F93CF93DF938C01EB01FC018081F4
:101D500091810097B1F0688179816115710579F001
:101D6000428153812C813D814217530740F00E94EC
:101D700000188C819D81F8019583848313C00E9493
:101D8000891688819981F801918380838A819B815A
:101D9000938382838C819D819583848319821882A9
:101DA0001B821A821D821C82DF91CF911F910F919D
:101DB00008950F931F93CF93DF93EC01888199814E
:101DC000009729F02A813B812617370788F48B0179
:101DD0006F5F7F4F0E942117009761F0998388837E
:101DE0001B830A832C813D81232B11F4FC0110827B
:101DF00081E001C080E0DF91CF911F910F910895A4
:101E0000EF92FF920F931F93CF93DF9300D0CDB744
:101E1000DEB78C0169831A82FC01E480F580FFEF54
:101E2000EF1AFF0AB7010E94D90E882381F0F8014A
:101E30002081318184819581BE016F5F7F4F820F48
:101E4000931F0E940018F801F582E48281E00F9050
:101E50000F90DF91CF911F910F91FF90EF90089518
:101E6000CF93DF93EC0188819981009711F00E9454
:101E70008916198218821D821C821B821A82DF91A8
:101E8000CF910895EF92FF920F931F93CF93DF931B
:101E9000EC017B018A01BA010E94D90E811104C0B4
:101EA000CE010E94300F07C01D830C83B7018881CB
:101EB00099810E940018CE01DF91CF911F910F915F
:101EC000FF90EF900895FC01808191810C94891618
:101ED000FC01118210821382128215821482611514
:101EE000710551F0FB0101900020E9F73197AF0136
:101EF000461B570B0C94420F0895BF92CF92DF926E
:101F0000EF92FF920F931F93CF93DF937C016B01AE
:101F1000EA0189012417350720F48D2FE901042FE8
:101F2000182F64E172E0C7010E94680FD601149671
:101F30008D919C911597C817D90748F5801791077F
:101F400008F48C01D601ED91FC911197E00FF11F7F
:101F5000B08010824D915C91BA016C0F7D1F6115AC
:101F6000710561F0FB0101900020E9F73197AF01A5
:101F7000461B570BC7010E94420F03C0C7010E94B6
:101F8000300FD601ED91FC91E00FF11FB082C70137
:101F9000DF91CF911F910F91FF90EF90DF90CF9045
:101FA000BF9008954F925F926F927F92EF92FF924F
:101FB0000F931F93CF93DF93CDB7DEB7A1970FB6E3
:101FC000F894DEBF0FBECDBF7C01FA01CB0119A290
:101FD000223008F42AE08E010F5D1F4F422E512C53
:101FE000612C712CBF01A30192010E94451BF901D4
:101FF000CA01015011096A3014F4605D01C0695CC6
:10200000D8016C93232B242B252B61F70115110587
:1020100091F0F80101900020E9F73197AF01401BE2
:10202000510BD701ED91FC910280F381E02DB801B5
:10203000C701099502C080E090E0A1960FB6F89420
:10204000DEBF0FBECDBFDF91CF911F910F91FF90EB
:10205000EF907F906F905F904F900895CF92DF92B6
:10206000EF92FF920F931F93CF93DF93EC016A01DE
:102070007B01E881F9810190F081E02D6DE2099505
:102080008C0144275527BA014C195D096E097F0957
:102090002AE0CE010E94D20F800F911FDF91CF91D5
:1020A0001F910F91FF90EF90DF90CF900895CF9305
:1020B000DF93CDB7DEB7CA54D1090FB6F894DEBFAF
:1020C0000FBECDBF789484B5826084BD84B5816035
:1020D00084BD85B5826085BD85B5816085BD8091F3
:1020E0006E00816080936E0010928100809181006B
:1020F0008260809381008091810081608093810063
:10210000809180008160809380008091B100846024
:102110008093B1008091B00081608093B000809185
:102120007A00846080937A0080917A008260809344
:102130007A0080917A00816080937A0080917A00A1
:10214000806880937A001092C10047E061E08AE7DE
:1021500093E00E94250A06E111E020E040E050E013
:1021600064E172E08AE793E00E94F5089E012F5F28
:102170003F4F590100E010E07901C8010E942D1B7A
:10218000D5018D935D010F5F1F4F04311105A9F734
:10219000E0913C02F0913D0282E08083E0913802C0
:1021A000F09139021082E0913A02F0913B028FECFB
:1021B000808310924402E0914002F091410286E057
:1021C0008083E0913E02F0913F02808180618083B4
:1021D000E0913E02F0913F02808188608083E0912F
:1021E0003E02F0913F02808180688083E0913E0250
:1021F000F0913F0280818F7D80838CE292E00E948B
:10220000B60176E2272E73E0372EE0E49E2E920C84
:10221000FCE34F2E512C612C712C86E693E0A4E157
:102220008A2E880E64E172E0CE01805C9F4F0E948E
:10223000680F8CE292E00E943801181619063CF4EF
:102240008CE292E00E9416018A3009F044C0269682
:102250002EAD3FAD269744E050E0BE01605C7F4F5D
:10226000C7010E947D0F06E111E020E040E050E050
:10227000B7018AE793E00E945C08C7010E94630FE0
:1022800060EA7FE080E090E00E94380B26962EAD59
:102290003FAD26974CE050E0BE01605C7F4FC70128
:1022A0000E947D0F20E040E050E0B7018AE793E014
:1022B0000E945C08C7010E94630F60EA7FE080E033
:1022C00090E00E94380B26968EAD9FAD2697892B05
:1022D00009F41DC307C0682FCE01805C9F4F0E9488
:1022E000000FA7CF2296EEADFFAD22978081882305
:1022F00009F40DC36BED71E0C7010E94680F2696CB
:102300008EAD9FAD2697892B81F022960EAD1FAD25
:10231000229769817A81C8010E940718009729F0E5
:10232000FC01E01BF10B8F0102C00FEF1FEFC70193
:102330000E94630F0F3F1F4F09F4CFC206E111E067
:1023400020E040E050E060EE71E08AE793E00E9418
:10235000F5088FB7F894A0901602B0901702C090BD
:102360001802D09019028FBF2FB7F89480911602EF
:1023700090911702A0911802B09119022FBF8A19EB
:102380009B09AC09BD0981319742A105B10508F04F
:10239000A7C08AE793E00E944A0A9093260280939E
:1023A0002502009709F30091230210912402F801FD
:1023B000EE0FFF1FE55EFD4F918380836AEF70E0B3
:1023C00080E090E00E94380B0F5F1F4F10932402B3
:1023D0000093230210922602109225020430110568
:1023E0001CF280911B0290911C02019709F044C0DD
:1023F00080911D0290911E020297F1F580911F02BB
:10240000909120020497C1F58091210290912202BF
:10241000089791F506E111E020E040E050E069EE18
:1024200071E08AE793E00E94F50810921C02109276
:102430001B0210921E0210921D0210922002109296
:102440001F02109222021092210210922402109276
:10245000230281E080931A0268EE73E080E090E04E
:102460000E94380B20E040E050E064E172E08AE72F
:1024700093E00E94F5083AC006E111E020E040E058
:1024800050E06DEE71E08AE793E00E94F50810924B
:102490001C0210921B0210921E0210921D0210923A
:1024A000200210921F02109222021092210210921A
:1024B00024021092230210921A0268EE73E080E068
:1024C00090E00E94380B20E040E050E064E172E0D0
:1024D0008AE793E00E94F50827961FAE2797F4C17C
:1024E00027963FAD2797332309F4EEC180E4D1014D
:1024F0001D928A95E9F780E1E0E0F1E0A6E2B3E021
:1025000001900D928A95E1F744E150E068E670E0B1
:102510008EE093E00E94741A10922203109223031B
:10252000109224031092250310920D0346E2C42E4C
:1025300043E0D42E860156E3B52EF80161918F0158
:102540006B2589EC92E00E94BD0D9012F6CF60EFF2
:1025500071E0C7010E94680F26968EAD9FAD269749
:102560002296AEACBFAC22970D811E81A114B1049E
:1025700009F4D5C10097A1F0080F191FB801C701D0
:102580000E94D90E882309F4CAC129813A818D811C
:102590009E81B501820F931F0E9400181E830D8338
:1025A000C7010E94050EC7010E94630F26962EAD3B
:1025B0003FAD269744E050E0BE01605C7F4FC7010D
:1025C0000E947D0F89819A81009719F00E94441A18
:1025D00003C060E070E0CB01A30192010E943A15B4
:1025E000CA01B9010E94C91A0E949C150E94661571
:1025F000AB01BC01C70128964FAF289729965FAF62
:1026000029972A966FAF2A972B967FAF2B970E9418
:10261000630F28964FAD289729965FAD29972A9684
:102620006FAD2A972B967FAD2B9777FF05C089EC6E
:1026300092E00E942E1005C02AE089EC92E00E94F0
:10264000D20F0E94180EFC0194E1A6E6B3E00190BF
:102650000D929A95E1F744E150E068E670E08EE073
:1026600093E00E94741A1092220310922303109296
:1026700024031092250310920D031CE5D6016D91E1
:102680006D01612789EC92E00E94BD0D9C10F6CF90
:1026900006E613E0F80161918F0189EC92E00E9457
:1026A000BD0D8012F7CF0E94180E8C0164E172E01C
:1026B000CE01CA960E94680F58016801F4E1CF0E5E
:1026C000D11C8501D501ED915D01F0E034E0F59577
:1026D000E7953A95E1F7EF5FFD4F6081CE01CA962D
:1026E0000E94000FD801EC91EF70F0E0EF5FFD4F1A
:1026F0006081CE01CA960E94000FAC14BD0409F798
:102700001DAA1CAA1FAA1EAA19AE18AE6AAD7BADDF
:102710006115710531F04EAD5FADCE01C4960E94DA
:10272000420F0E94FD0D0E94FD0D28AD39ADA9019B
:1027300041505109BE016C5C7F4FCE0188960E94CA
:102740007D0FCE0188960E94050E40E150E060E0CA
:1027500070E088A599A50E9421185B016C01AA0C64
:10276000BB1CCC1CDD1C96FF07C0B601A5018CE28A
:1027700092E00E942E1007C02AE0B601A5018CE26B
:1027800092E00E94D20F0E94FD0D9501285F3F4FFD
:10279000A501BE016C5C7F4FCE018E960E947D0F1D
:1027A000CE018E960E94050E40E150E060E070E0A0
:1027B0008EA59FA50E9432191BA21AA21DA21CA2BF
:1027C0001FA21EA22AE0A7010E94921AF7010190FF
:1027D0000020E9F73197AF014E195F09B701CE012B
:1027E00082960E94420FBE016E5D7F4FCE018E9693
:1027F0000E94A00ECE0182960E94630FCE018E969B
:102800000E94050E2AA93BA9A90146505109BE0103
:10281000625D7F4FC7010E947D0FB701CE018E968A
:102820000E94A00EC7010E94630FCE018E960E94E7
:10283000050E0E94FD0D0E94FD0DCE0188960E949E
:10284000630FBE01625D7F4FCE01CA960E94A00E4B
:10285000CE018E960E94630FCE01C4960E94630F34
:102860001A8219821C821B821E821D826AAD7BAD78
:102870006115710529F04EAD5FADC7010E94420F91
:1028800006E111E020E040E050E0B7018AE793E084
:102890000E945C08C7010E94630F60E177E280E05C
:1028A00090E00E94380B20E040E050E064E172E0EC
:1028B0008AE793E00E94F508CE01CA960E94630F52
:1028C000B1E02796BFAF279760ED77E080E090E01A
:1028D0000E94380B06E111E011C006E111E020E092
:1028E00040E050E069EF71E08AE793E00E94F5086C
:1028F00060ED77E080E090E00E94380B20E040E05F
:1029000050E064E172E08AE793E00E94F508CE01AE
:10291000805C9F4F0E94630F0E94D80183CCC70147
:102920000E94300F3DCECF93DF9310922F02109272
:102930002E0288EE93E0A0E0B0E080933002909306
:102940003102A0933202B093330281E891E0909378
:102950002D0280932C0285EC90E0909339028093B5
:10296000380284EC90E090933B0280933A0280EC32
:1029700090E090933D0280933C0281EC90E0909334
:102980003F0280933E0282EC90E09093410280935C
:10299000400286EC90E090934302809342021092B2
:1029A000450210924602109247021092480210927D
:1029B00083031092820381E991E0909381038093D5
:1029C00080031092CC021092CB0289E991E090939F
:1029D000CA028093C90281EA91E090937B038093BD
:1029E0007A0383E080937D0382E080937E0385E019
:1029F00080937F0388E080937C0361E083E00E9402
:102A0000A20A61E082E00E94A20A61E085E00E94E1
:102A1000A20A61E085E00E94840961E082E00E94F0
:102A2000840960E48AE793E00E940D0A6FE88AE770
:102A300093E00E940D0A60E085E00E94840960EC4A
:102A40008AE793E00E94B409C0E1D0E060E08AE741
:102A500093E00E94B4092197C9F761E085E00E94E4
:102A600084098FEB91E090937B0380937A03DF914D
:102A7000CF910895052E97FB1EF400940E945115E6
:102A800057FD07D00E94451B07FC03D04EF40C9461
:102A9000511550954095309521953F4F4F4F5F4FC1
:102AA000089590958095709561957F4F8F4F9F4FBA
:102AB0000895692796276927782787277827089513
:102AC000EE0FFF1F0590F491E02D09940E946D1503
:102AD0006894B1110C94271B08950E940C1B88F078
:102AE0009F5798F0B92F9927B751B0F0E1F0660FD2
:102AF000771F881F991F1AF0BA95C9F714C0B13013
:102B000091F00E94261BB1E008950C94261B672FBC
:102B1000782F8827B85F39F0B93FCCF38695779541
:102B20006795B395D9F73EF490958095709561952A
:102B30007F4F8F4F9F4F08950E94DC1590F09F3775
:102B400048F4911116F00C94271B60E070E080E8C7
:102B50009FEB089526F41B16611D711D811D0C94B9
:102B6000B3150C94CE15882371F4772321F0985077
:102B7000872B762F07C0662311F499270DC090513B
:102B8000862B70E060E02AF09A95660F771F881F09
:102B9000DAF7880F9695879597F908959F3F31F05A
:102BA000915020F4879577956795B795880F911D7B
:102BB0009695879597F908950E940C1BA0F0BEE7A3
:102BC000B91788F4BB279F3860F41616B11D672F1C
:102BD000782F8827985FF7CF869577956795B11DF1
:102BE00093959639C8F30895CF93DF93823091057A
:102BF00010F482E090E0E0914B04F0914C0420E06E
:102C000030E0C0E0D0E0309711F1408151814817A9
:102C10005907C0F04817590761F4828193812097C2
:102C200019F09B838A832BC090934C0480934B04B0
:102C300026C02115310519F04217530718F49A01DF
:102C4000BE01DF01EF010280F381E02DDCCF211511
:102C5000310509F1281B390B2430310590F4129607
:102C60008D919C9113976115710521F0FB01938360
:102C7000828304C090934C0480934B04FD013296F0
:102C800044C0FD01E20FF31F81939193225031095B
:102C90002D933C933AC02091490430914A04232B50
:102CA00041F4209112013091130130934A04209392
:102CB000490420911001309111012115310541F491
:102CC0002DB73EB74091140150911501241B350BCF
:102CD000E0914904F0914A04E217F307A0F42E1B97
:102CE0003F0B2817390778F0AC014E5F5F4F241770
:102CF000350748F04E0F5F1F50934A044093490434
:102D00008193919302C0E0E0F0E0CF01DF91CF9199
:102D100008950F931F93CF93DF93009709F48CC00E
:102D2000FC0132971382128200914B0410914C04E3
:102D30000115110581F420813181820F931F2091AB
:102D4000490430914A042817390779F5F0934A0469
:102D5000E093490471C0D80140E050E0AE17BF07CE
:102D600050F412962D913C911397AD012115310528
:102D700009F1D901F3CF9D01DA0133832283608108
:102D80007181860F971F8217930769F4EC012881E0
:102D90003981260F371F2E5F3F4F318320838A8171
:102DA0009B8193838283452B29F4F0934C04E09319
:102DB0004B0442C01396FC93EE931297ED01499198
:102DC00059919E01240F351FE217F30771F480819A
:102DD0009181840F951F029611969C938E93828108
:102DE000938113969C938E931297E0E0F0E0D801C4
:102DF00012968D919C911397009719F0F8018C0110
:102E0000F6CF8D919C9198012E5F3F4F820F931FBB
:102E10002091490430914A042817390769F4309702
:102E200029F410924C0410924B0402C013821282B7
:102E300010934A0400934904DF91CF911F910F91A1
:102E40000895A0E0B0E0E7E2F7E10C94761BEC0116
:102E5000009721F4CB010E94F415B8C0FC01E60FE5
:102E6000F71F9C0122503109E217F30708F4ACC0A8
:102E7000D9010D911C91119706171707B0F0053075
:102E8000110508F49FC0C80104978617970708F436
:102E900099C002501109061B170B019311936D93F2
:102EA0007C93CF010E9489168DC05B01A01AB10AE4
:102EB0004C01800E911EA0914B04B0914C0440E057
:102EC00050E0E12CF12C109709F44AC0A815B9057F
:102ED000D1F56D907C901197630182E0C80ED11CF2
:102EE000CA14DB0480F1A3014A195B096A0182E07C
:102EF000C80ED11C1296BC9012971396AC91B5E0F7
:102F0000CB16D10440F0B282A38351834083D90110
:102F10006D937C930AC00E5F1F4FC301800F911FFA
:102F2000F90191838083EB2DFA2FE114F10431F044
:102F3000D7011396FC93EE93129744C0F0934C0480
:102F4000E0934B043FC08D919C911197481759070E
:102F500008F4AC017D0112960D90BC91A02DB3CF69
:102F60008091490490914A0488159905E1F4461727
:102F70005707C8F48091100190911101009741F416
:102F80008DB79EB74091140150911501841B950B8C
:102F9000E817F907C8F4F0934A04E0934904F901EB
:102FA000718360830FC0CB010E94F4157C010097F0
:102FB00059F0A801BE010E94F017CE010E948916A7
:102FC000C70104C0CE0102C080E090E0CDB7DEB7FB
:102FD000EEE00C94921B81E090E0F8940C94B81B06
:102FE000FB01DC0102C001900D9241505040D8F726
:102FF0000895DC0101C06D9341505040E0F7089501
:10300000FB01DC0101900D920020E1F70895FB0126
:1030100051915523A9F0BF01DC014D914517411194
:10302000E1F759F4CD010190002049F04D91401590
:103030004111C9F3FB014111EFCF81E090E001970D
:103040000895A0E0B0E0E7E2F8E10C94721B5C01A7
:103050006B017A016115710519F0FB019183808381
:10306000E114F10429F0C7010297839708F0F1C039
:10307000E5012196F5011081812F90E00E946B1AE5
:10308000892B11F05E01F4CF1D3229F42196F50150
:10309000118101E007C01B3221F4E5012296F50100
:1030A000118100E0E114F10459F1F0E1EF16F104AF
:1030B00061F41033E1F488818F7D883569F51981D9
:1030C0002296026070E1E72EF12C88E0E816F10408
:1030D00039F12CF4F2E0EF16F104C9F12AC08AE0CC
:1030E000E816F10479F0E0E1EE16F10411F550E193
:1030F000E52EF12C812C912CA12C68E0B62E2CC051
:103100001033C9F23AE0E32EF12C4CEC842E982CCB
:10311000A82C4CE0B42E20C010E3E114F104A9F671
:1031200098E0E92EF12C812C912CA12C20E1B22EDB
:1031300013C060E070E080E090E897010F2C000C75
:10314000440B550B0E94451B49015A0105C0812CB7
:10315000912CA12C80E4B82E60E020E030E0A901A1
:1031600027010F2C000C660877081E01E0EDE10F27
:10317000EA3060F08FEB810F8A3110F4E9EC05C082
:103180008FE9810F8A3128F5E9EAE10F8E2F90E06F
:103190008E159F05F4F467FD18C082169306A406E9
:1031A000B50690F0C301B2010E94351B9B01AC0132
:1031B0002E0F311D411D511D213031054105F0E813
:1031C0005F0710F461E001C06FEF2196F1011081FB
:1031D000CCCF802F8170C114D10471F0662329F007
:1031E0002197F601D183C08307C001FF19C0229740
:1031F000F601D183C08314C067FF12C0811105C0DE
:103200002FEF3FEF4FEF5FE704C020E030E040E0FA
:1032100050E882E290E090934E0480934D0416C0F3
:10322000882341F050954095309521953F4F4F4F61
:103230005F4F0CC057FF0AC082E290E090934E04AB
:1032400080934D042FEF3FEF4FEF5FE7B901CA01C5
:1032500004C060E070E080E090E0CDB7DEB7E2E16E
:103260000C948E1BA6E0B0E0E8E3F9E10C94721B2D
:103270005C016B017A016115710519F0DB018D9319
:103280009C93E114F10429F0C7010297839708F099
:10329000DCC03501BFEF6B1A7B0AF5011081812F6D
:1032A00090E00E946B1A892B11F05301F2CF1D326E
:1032B00049F43501F2E06F0E711CD50111961C9195
:1032C00001E009C01B3231F43501B2E06B0E711C14
:1032D000F501118100E0E114F10409F4C4C0F0E14A
:1032E000EF16F10489F4103399F5D3018C918F7D99
:1032F000883509F0B2C011961C91B2E06B0E711CBA
:10330000026050E1E52EF12CEAE0EE16F10409F43A
:10331000B0C0F0E1EF16F104D9F028E0E216F104B4
:1033200051F438E0E32EF12C88248A94982CA82CB0
:103330004FE1B42E13C06FEF7FEFCB0197010F2C3D
:10334000000C440B550B0E94451B49015A0106C055
:1033500088248A94982CA82C2FE0B22E7E826D822D
:1033600060E020E030E0A90127010F2C000C660886
:1033700077082D803E80E0EDE10FEA3060F08FEBC2
:10338000810F8A3110F4E9EC05C08FE9810F8A3191
:1033900090F5E9EAE10F8E2F90E08E159F055CF520
:1033A0006F3F09F182169306A406B506D8F0C30153
:1033B000B2010E94351B2E2F30E040E050E02983FF
:1033C0003A834B835C83260F371F481F591F89811F
:1033D0009A81AB81BC81281739074A075B0710F037
:1033E00061E001C06FEFED81FE813196FE83ED83D8
:1033F000D1011C91BECFC114D10489F0662339F0EC
:103400008D819E810197F6019183808308C001FF21
:1034100006C08D819E810297D6018D939C9300FFFB
:1034200007C050954095309521953F4F4F4F5F4FC6
:1034300067FF10C082E290E090934E0480934D04A9
:103440006FEF7FEF8FEF9FEF1BC060E070E080E0D9
:1034500090E016C0B901CA0113C010E3E114F104F1
:1034600009F45FCF51CF103309F43FCF9AE0E92E32
:10347000F12C89E9882E982CA82C89E1B82E6ECFE2
:103480002696E2E10C948E1B1F93FC019927882756
:10349000BC01E89411911032E9F3193010F01E309C
:1034A000C8F31B3251F01D3249F4689406C00E94E3
:1034B0007D1A610F711D811D911D119110531A30DC
:1034C000B0F33EF490958095709561957F4F8F4F46
:1034D0009F4F1F91089591110C94B41A803219F0E6
:1034E00089508550C8F70895FB01DC0102C00590A2
:1034F0000D9241505040D8F70895592F482F372F3B
:10350000262F660F771F881F991F660F771F881F4A
:10351000991F620F731F841F951F660F771F881FE7
:10352000991F0895BB27FA01A62F6217710581051F
:103530009105330B30FB66F0AA27660F771F881FB3
:10354000991FAA1FA21710F0A21B63953850A9F764
:10355000A05DAA3308F0A95DA19336F7B111B1932C
:103560001082CA010C94B71A992788270895DC01A4
:10357000FC01672F71917723E1F7329704C07C91AA
:103580006D9370836291AE17BF07C8F30895E894F6
:1035900009C097FB3EF490958095709561957F4F9B
:1035A0008F4F9F4F9923A9F0F92F96E9BB27939549
:1035B000F695879577956795B795F111F8CFFAF459
:1035C000BB0F11F460FF1BC06F5F7F4F8F4F9F4F8A
:1035D00016C0882311F096E911C0772321F09EE8E8
:1035E000872F762F05C0662371F096E8862F70E04E
:1035F00060E02AF09A95660F771F881FDAF7880F28
:103600009695879597F9089557FD9058440F551F43
:1036100059F05F3F71F04795880F97FB991F61F054
:103620009F3F79F087950895121613061406551FCB
:10363000F2CF4695F1DF08C0161617061806991F37
:10364000F1CF86957105610508940895E894BB272C
:1036500066277727CB0197F90895F999FECF92BD98
:1036600081BDF89A992780B50895DB018F939F93C8
:103670000E94671BBF91AF91A29F800D911DA39FD8
:10368000900DB29F900D11240895A1E21A2EAA1B4D
:10369000BB1BFD010DC0AA1FBB1FEE1FFF1FA21702
:1036A000B307E407F50720F0A21BB30BE40BF50BFF
:1036B000661F771F881F991F1A9469F76095709588
:1036C000809590959B01AC01BD01CF0108950E94AA
:1036D000A91BA59F900DB49F900DA49F800D911DD7
:1036E000112408952F923F924F925F926F927F9292
:1036F0008F929F92AF92BF92CF92DF92EF92FF9202
:103700000F931F93CF93DF93CDB7DEB7CA1BDB0BAD
:103710000FB6F894DEBF0FBECDBF09942A88398852
:1037200048885F846E847D848C849B84AA84B98459
:10373000C884DF80EE80FD800C811B81AA81B98165
:10374000CE0FD11D0FB6F894DEBF0FBECDBFED0179
:103750000895A29FB001B39FC001A39F700D811D6A
:103760001124911DB29F700D811D1124911D08958A
:04377000F894FFCFFB
:10377400574844513949345735465A5343434930DD
:1037840000004F0480000086227E6D000002300697
:103794006300044080523F065B4F666D7D277F6F58
:1037A4000000004800535F777F393F79713D76060A
:1037B4001F693815373F7367316D783E2A1D766E61
:1037C4005B39640F0008205F7C585E7B316F7404A2
:1037D4000E753055545C7367506D781C2A1D766ED7
:1037E40047460670017950505C500000000000000C
:1037F400006F01D20D380116012A01B60100000044
:10380400004F04D20D00000000BD0DD20D000000D9
:1038140000250AD003A903A00379035A03FE028AF0
:1038240002E2010D0AD609B409DE0A0000000025EF
:103834000A4804A9034104F303E803F5085C083AC1
:10384400040D0AD609B409DE0A4A0A57414954004C
:10385400574149542050494E00594553004E4F009A
:10386400636F6E74656E743A00474F20204F555451
:103874000030313233343536373839616263646548
:0638840066000D0A0000C1
:00000001FF
